:1000000058650020253300003D7C0000F9320000D7
:10001000F9320000F9320000F9320000000000005F
:10002000000000000000000000000000F92C0000AB
:10003000F932000000000000F9320000F93200003F
:10004000492D0000492D0000492D0000492D0000D8
:10005000492D0000492D0000492D0000492D0000C8
:10006000492D0000492D0000492D0000492D0000B8
:10007000492D0000492D0000492D0000492D0000A8
:10008000492D0000492D0000492D0000492D000098
:10009000492D0000492D0000492D0000492D000088
:1000A000492D0000492D0000492D0000492D000078
:1000B000492D0000492D0000492D0000492D000068
:1000C000492D0000492D0000492D0000492D000058
:1000D000492D0000492D0000492D0000492D000048
:1000E000492D0000492D0000492D0000492D000038
:1000F000492D0000492D0000492D0000492D000028
:1001000053B94AB9002908BF00281CBF4FF0FF317E
:100110004FF0FF3000F00CB8ADF1080C6DE904CEE3
:1001200000F008F8DDF804E0DDE9022304B07047D0
:10013000704700BF2DE9F04786468C460846089E6A
:10014000154674461946002B40F0C2808542B2FA2B
:1001500082F245D94AB1C2F1200300FA02FC2EFA1C
:1001600003F3954043EA0C0C94404FEA154EA8B2B5
:10017000BCFBFEF8230C0EFB18CC08FB00F943EA8D
:100180000C43994528D9EB1808F1FF3704D299455B
:1001900002D9A8F102072B44A3EB0903A4B2B3FBD5
:1001A000FEFC0EFB1C330CFB00F044EA0344A042AF
:1001B00014D92C190CF1FF3304D2A04202D9ACF1AE
:1001C00002032C44241A43EA07401EB1D440002302
:1001D00034607360BDE8F0874746DDE76346F1E7CA
:1001E00092BB431B01214FEA154EAFB2B3FBFEFC9D
:1001F000200C0EFB1C330CFB07F840EA0343984528
:1002000062D9EB180CF1FF3004D2984502D9ACF159
:1002100002002B44A3EB0803A4B2B3FBFEFC0EFBCD
:100220001C330CFB07F744EA0344A7424ED92C19B0
:100230000CF1FF3304D2A74202D9ACF102032C44E3
:10024000E41B43EA0040C0E7C2F1200320FA03F1B7
:10025000954090402EFA03F303434FEA154EAFB298
:10026000B1FBFEFC0EFB1C10190C0CFB07F841EA5D
:100270000041884504FA02F422D969180CF1FF30D4
:1002800004D2884502D9ACF102002944A1EB08014F
:100290009BB2B1FBFEFC0EFB1C110CFB07F743EA03
:1002A00001439F420ED9EB180CF1FF3104D29F425B
:1002B00002D9ACF102012B44DB1B41EA004192E779
:1002C0006046E3E76146F7E76046A3E76346B7E7C2
:1002D000834206D916B9002108467BE7C6E900E04B
:1002E000F9E7B3FA83F78FB9834201D3724508D88F
:1002F000BEEB020460EB030301209C461EB9002103
:1003000068E73846FAE7C6E9004CF8E7C7F1200C81
:10031000BB4022FA0CF41C432EFA0CF120FA0CF329
:10032000B84001434FEA14490EFA07F5B3FBF9F858
:100330001FFA84FE09FB18300B0C08FB0EFA43EA87
:1003400000439A4502FA07F240D9E31808F1FF305A
:1003500004D29A4502D9A8F102002344A3EB0A0370
:1003600089B2B3FBF9F809FB183308FB0EFE41EA2A
:1003700003418E452CD9611808F1FF3304D28E4514
:1003800002D9A8F10203214443EA0040A0FB0298ED
:10039000A1EB0E014145CE46434602D306D14D4561
:1003A00004D2B9EB020E68EB04030138002EA6D08C
:1003B000B5EB0E0261EB030101FA0CFC22FA07F324
:1003C0004CEA0303F940C6E9003198E74046C5E727
:1003D0004346D9E7F0B5384B384AC3F8002689B010
:1003E000C3F804260024C3F80826C3F80C26C3F873
:1003F0001026C3F81426C3F81826C3F81C26304B61
:1004000030490293032223462046CDE9004406F0FA
:1004100001FF00F08FF805A800F04CFD2A4B1B6887
:1004200098420AD0294B27490094CDE90143012283
:100430002346204606F0EEFEFEE7079B0393244B7F
:1004400020490094CDE9014320462346032206F0CB
:10045000E1FE204B1B4900940322CDE901432046D5
:10046000234606F0D7FE04A99DF8180000F036F8E0
:10047000049B079D1D44059B1E8904F0B5FCAF1924
:1004800001F08AF801F05EF802F088FFAB5983F3BF
:10049000088884F31488BFF36F8FBFF36F8F7B6876
:1004A00098470D4B07490094CDE9014301222346AB
:1004B000204606F0AFFEFEE7000001403546526ED2
:1004C000BEA30000889E0000E0010020D2A300002F
:1004D000F0A300001AA400003AA400007FB5002396
:1004E00078B1094A09490093CDE90303CDE9013206
:1004F0001846012206F09DFE6FF0150007B05DF86A
:1005000004FB0860FAE700BF58A40000889E0000C2
:1005100021B1012906D06FF015007047044B53F844
:1005200030007047024B03EBC0035868704700BFB0
:10053000E89E000002484FF4C05104F01BBF00BF0A
:10054000341800202DE9F04FF9B0DDE98489DFF897
:10055000BCB1869FDBF8005038A816461C4609F04F
:1005600051F9002138A805F019F8B8F1000F07D0AB
:10057000B9F1000F04DD4A46414638A809F046F9B2
:1005800033897289D6F80CA013449A444FF00008BE
:10059000C24544D80DA938A809F07CF927B120221A
:1005A0000DA9384607F09FFB0023009322464FF623
:1005B000FF73314607A806F067FE804660BB204601
:1005C0000C9E00F0EBF9864226D8DFF844914FF0FC
:1005D000FF370DF1160305AA06A907A806F0A2FE2B
:1005E000002819DB40F08A80BDF81660102E2ED14D
:1005F000BDF81460202E0FD10699334638AA204644
:1006000007F091FA40B9324638A90DA806F0D6FE97
:10061000404B1B68834217D0DBF8005071E0839B8E
:10062000829AAAEB0809994528BF99464B4641464C
:10063000204607F078FA0028EED182994A4638A879
:1006400009F0E4F8C844A3E74FF00108C1E7012E20
:1006500035D1BDF81430202BDED8069938AA2046B3
:1006600007F061FA07460028D6D19DF814A0BAF128
:10067000200F02D94FF0FF37ABE7D9F80030264EF4
:100680000393039B9F42F5DA1DA809F0BBF80021F4
:100690001DA804F083FF726856F8081B12681DA895
:1006A00009F0B4F815A91DA809F0F4F8524638A9C4
:1006B00015A807F0F1FA00288BD00137E1E7202ECA
:1006C00087D17B1C85D0D9F80030BB42D2DDBDF884
:1006D0001430B3F5807F9FD1069938AA204607F0E1
:1006E00022FA002898D1FFB2BDF81430009738AA3A
:1006F00031460DA800F012F80546BBE7B8F1000F2F
:100700008AD0284679B0BDE8F08F00BF04000020F1
:10071000F09E0000E0010020F49E00002DE9F04F63
:10072000DFF8D4A1ADF54D7D074629A89DF858B353
:10073000DAF800501E468946904609F01EF8042259
:10074000012129A804F0A6FE6C4B53F83B40049409
:1007500003EBCB038CAA5B681B681C442146302347
:1007600004A807F031FE002840F0BE80049B8C9A5C
:1007700013449C4240F0B8802BAA214604A807F0FD
:1007800037FE002840F0B0800DF1B80B5A462146E4
:1007900004A807F02DFE0390002840F0A5802BA8A8
:1007A00007F01CFF049A2A90944240F09D80039B1E
:1007B000CDF804B000931A462BA929A808F09AFF97
:1007C000002840F0918029A804F07AFE002840F02B
:1007D0008B802BA807F002FF2A9029A808F0D7FFEA
:1007E000864240F08180B6F5807FDAF800507BD1F8
:1007F000B9F1200F78D18CAA414629A804F086FED1
:100800000446002870D19DF82F33BC2B6CD1059085
:100810000DF5A879DF260EA808F0F4FF00210EA838
:1008200004F0BCFE20220DF20F310EA808F0EEFFFE
:10083000042205A90EA808F0E9FF06A90EA809F0F0
:1008400029F8202E9DF81730B046A8BF4FF0200899
:1008500001334846424606A9A6EB08068DF8173034
:1008600007F041FA002EC144D5DC54AB8CAA1846DF
:1008700000219C46067812F801EB013186EA0E064B
:10088000DF2900F8016BF5D11A7802F07F021A70A7
:1008900013F8016B46BB0134BE2CF9D19CF8BE3075
:1008A000012B21D10EA808F0ADFF31460EA804F0AF
:1008B00075FE134908220EA808F0A8FF3946202229
:1008C0000EA808F0A3FF20220DF20F210EA808F0B9
:1008D0009DFF06A90EA808F0DDFF20220DF20F31C2
:1008E00006A806F06BFD054629A808F052FF284629
:1008F0000DF54D7DBDE8F08F04000020F49E000052
:1009000079A400007FB50BAB05930393054B0293CD
:100910000023CDE900330122184601F01DFE07B087
:100920005DF804FB81A40000094A0B78400052F8EE
:1009300020108B4209D0013052F82000834214BFAE
:100940004FF0FF304FF4407070474FF440707047E5
:10095000FC9E00001FB50F4B13F830000C4602F050
:1009600095F850B92068816810236A46103907F05D
:10097000DAF828B1206807F0D5F84FF0FF3006E02C
:1009800005491022684607F087F90028F2D104B023
:1009900010BD00BFFC9E0000AEA3000010B586B0E5
:1009A000044606F012FD04AA0146204606F053FC58
:1009B00068B10024074B02932046CDE90044064964
:1009C00023460122FFF79EFF204606B010BD049883
:1009D000FBE700BF81A40000889E00002DE9F041E4
:1009E000394B88B0064600200D461C68FFF790FD85
:1009F00006A9C0B202F04AF800285FD12946FFF7E5
:100A000087FD2C2407A9C0B204FB056402F03EF860
:100A100000283AD02C276F4306EB0708069BD8F82E
:100A2000101011F010013FD14FF480720192274A4B
:100A30000092CDE90311224602910846FFF782FD9C
:100A40000446234BF25906989A420CD1D8F80C2050
:100A5000B8F808309B1806D28268934203D21D4B27
:100A60001B68A34227D06DB38268002107F085F888
:100A7000194B0393194B02930023CDE90033184916
:100A80000122184606F0DFFC13E0079807F090F803
:100A90000746079807F046F8631EE21C13F8011F8B
:100AA000B942B7D19342F9D11DB10699304606F04B
:100AB00086FD0C4B1C68069807F034F8204608B0F9
:100AC000BDE8F081084BD4E704000020343000205A
:100AD0003DB8F396E0010020BFA40000C9A40000C7
:100AE000889E000000000020B7A4000070B50D46ED
:100AF00088B0044600212846CDE9061106F01EFD07
:100B000060B323681C4EB34203D107AA204606F007
:100B1000A9FCE36AB34204D106AA0121204606F0EB
:100B2000A1FCDDE90632934288BF0793079BAB60C7
:100B3000079A2946204600F0F3FB104B1B68002B58
:100B40000ADD03930E4B02930023CDE900330D49D8
:100B50000222184606F077FC08B070BD05A9FFF721
:100B6000F9FE059805F1080106F03AFCAB68059816
:100B7000079306F0D7FFDBE73DB8F3964416002055
:100B8000ECA40000889E00002DE9F84FDFF870B05B
:100B90001C4C1D4D884691469A4600260B9B9E4252
:100BA00001D300200FE00B9B154A9F1BB7F5806F08
:100BB00028BF4FF480673B4606EB0A01404606F02B
:100BC000B2FF10B10120BDE8F88F0A993B465A46A2
:100BD0007118484606F0BCFF0028F3D1C4F800564F
:100BE0003E44C4F80456C4F80856C4F80C56C4F879
:100BF0001056C4F81456C4F81856C4F81C56CDE75D
:100C0000E4110020000001403546526EF0B59F4BC4
:100C100043620E469E4B036500218BB00446084696
:100C2000FFF776FC04F12001C0B201F02FFF012193
:100C30000020FFF76DFC04F14C01C0B201F026FF6B
:100C4000204606F050FC054698B900221146204681
:100C500006F0E3FB054670B38E4A0023CDE901326E
:100C6000039300938C490222184606F0ECFB012303
:100C7000A1E04FF480730393884B02930023CDE9E6
:100C8000003318468449022206F0DDFB01239D4211
:100C900084F85830D9D194F858308DF81F30042B8F
:100CA00000F28C80012B00F2908000F0A380FF23E3
:100CB00084F858309EE0204600F016FA0028D6D07E
:100CC00006A806F032FC0146204606F0CCFC30B106
:100CD000734B0395CDE9015300952B46C2E706A857
:100CE00006F02CFC80F0010106AAC9B2204606F0ED
:100CF00094FB02460028AFD106A806F01FFC05466B
:100D000090BB06A92046FFF7F1FE9DF81F3084F83E
:100D10005830033B012B06D8284600F0F1F810B1FB
:100D2000FF2384F858309DF81F30023B022B11D866
:100D3000002000F0CFF868B1FF2384F85830594BF9
:100D400002930023CDE9003353490122184606F0EF
:100D50007AFBFEE794F85830FF2BF0D006AA00216A
:100D6000204606F05AFB82E79DF81F70012F17D12D
:100D7000104604F0EFF8831E022B05460DD83946C5
:100D80002046FFF72BFE484B1B68984205D0474B87
:100D90001D68A84214BF0525012584F858507AE73C
:100DA00001212046FFF71AFE3F4B1B6898420CBFFB
:100DB0009DF81F30052384F858306CE7052B7FF42D
:100DC00076AF002000F09CF811E006A92046FFF75E
:100DD0008DFE94F85830DA1E012A1BD8002000F04E
:100DE0008FF800287FF463AF002000F073F800282C
:100DF0007FF45DAF94F85820FF2A4FF000030CD128
:100E0000284A25490093CDE901321846012206F00F
:100E10001AFBFEE7022BEDD1E6E7012A244D0593EC
:100E200014D006AA1946204606F0F7FA70B12D68CC
:100E30001022002106A806F061FFE06C06F072FEA9
:100E4000206A06F06FFE28460BB0F0BD0021204658
:100E5000FFF7C4FD144F3B688342E8D12A689A42E9
:100E6000E5D0124A12689A42E1D0059B01330593FE
:100E7000059B012B00D0FEE7206A06F0EAF93071ED
:100E8000236A5B6834603D68B360D1E7E409002001
:100E9000E401002053A50000889E000016A5000074
:100EA0007AA500009FA50000E001002000000020BE
:100EB0000400002038B5064D044660220021284673
:100EC00006F01CFF21462846FFF7A0FE38BD00BFF4
:100ED000E415002013B5094B01A913F8300001F007
:100EE000D5FD48B9019807F01BFA0446019806F0B1
:100EF00019FE204602B010BD0124FAE7049F00004D
:100F00001FB50F4B01A913F8300001F0BFFDA8B9C0
:100F1000019802A903F0C8FF044668B99DF80B3098
:100F2000032B03D1019807F0C9F90446019806F094
:100F3000F9FD204604B010BD0124F7E70124F8E7CD
:100F4000049F00002DE9F34106460C4617461D4656
:100F50000BB9002628E0184606F0F0FA0028F8D170
:100F60006946FFF7F7FC009838B90124009806F0AD
:100F7000D9FD204602B0BDE8F08101A906F030FAA3
:100F80000028F2D1009806F0CDFD3046019906F018
:100F9000B6FB736A5E686B79012B21D1002CD8D126
:100FA0002B68834298BF002621460020FFF7B0FA45
:100FB0006946C0B201F06AFD0028D6D1009820230E
:100FC0003A46314606F0AFFD04460028CDD1002D4B
:100FD000CCD03C680D4BE41A18BF4FF0FF34C5E786
:100FE000022BB6D12B68012B05D98342B1D8B4FAB4
:100FF00084F46409ADE7ACD1002CD5D0012CA8D184
:101000002C79023C18BF0124A3E700BF3DB8F3963A
:101010002DE9F04F074689B00C46014600201646E0
:10102000FFF782FC051E57DB3846E46D06F0CDF96C
:101030005FFA84F96B1E09FB03084FF0000A4FF0BA
:10104000010B4FF0FF34CDB9BAF1010F09DD244B8C
:1010500024490095CDE9015301222B46284606F08C
:101060003FFB631C06D0FF2C2ADC013440F2011345
:101070003460B380284609B0BDE8F08F6B1E04933E
:101080000DF11F0201234146384606F04CFD031EB8
:10109000059323DB01220DF11F01384607F0A9F863
:1010A000059B40B19B4501D00AF1010A049DA8EBC4
:1010B00009089B46C7E7B4F1FF3F08BF2C46F5E798
:1010C0000223A4F580747371631004F001040133EA
:1010D000013433603471CDE70725CBE70125C9E73B
:1010E000A6A50000889E000030B5826A446DA24229
:1010F00085B006D0631C934203D0184B02930023A3
:1011000006E0B2F5807F4FF0000324D9144A029222
:101110001846CDE900331349022206F0E1FA002017
:1011200005B030BD416A056D01EBC30105EBC30598
:1011300049686D688D4201D00B4BDFE70133A34254
:10114000F0D19A4205D9426A02EBC3035B68994227
:10115000F2D10120E4E71946F1E700BFC4A5000081
:10116000F7A50000889E000021A6000010B58CB0F5
:1011700008A9032007F0AFF89DF82020012A55D0D8
:10118000334B3449032A08BF0B469DF823200792AE
:101190009DF8222006929DF821202F4C2F49029481
:1011A000CDE904322E4B0393002303221846CDE9E8
:1011B000003306F095FA0AA9062007F08CF89DF88E
:1011C0002820012A34D0224B2249032A08BF0B468B
:1011D0009DF82B2007929DF82A2006929DF8292041
:1011E0001E49CDE904321F4BCDE9024300242346BA
:1011F000CDE900440322204606F072FA9DF8203023
:10120000012B17D19DF82220032A13D19DF82830F5
:10121000012B0FD0144B11490094CDE90143204616
:10122000234606F05DFA02200CB010BD0F4BACE770
:101230000E4BCDE700240E4B02932046CDE900442F
:1012400006492346032206F04BFA2046ECE700BF8E
:1012500048A6000051A6000065A60000889E000078
:1012600057A60000A1A60000B1A600004CA60000F1
:10127000CBA6000070B54B681446224A03F0FF234A
:1012800093428AB006460D4637D10B68012B34D104
:1012900008A9204603F008FE9DF82020012A2ED040
:1012A000194B1A49032A08BF0B469DF823200792C1
:1012B0009DF8222006929DF821201549CDE904329F
:1012C000144B0393144B02930023CDE900331846CB
:1012D000032206F005FA9DF82030032B0DD121469C
:1012E000304606F06CF9204606F0E8FFA968204673
:1012F00006F084F8204603F0B7FD0AB070BD074B36
:10130000D3E700BF0001000448A6000051A600007A
:10131000889E0000A1A6000065A600004CA6000063
:101320002DE9F04F8DB00027814B029305461646FC
:101330003B460C4603227F493846CDE9007706F04C
:10134000CFF93146284606F0DAF96B6A8246204624
:101350005E6806F0F3F868B3E86D06F031F8AB6A42
:1013600003F1FF383744B84202D908F1FF38F9E7F2
:10137000D0451FD80025704B6E49029302222B46A0
:101380002846CDE9005506F0ABF906FB08F30493B7
:101390006A4B684900950AFB0666CDE9015303963E
:1013A0002B460222284606F09BF90123E3710DB07B
:1013B000BDE8F08F0AA9032001F068FB0BA9062005
:1013C00001F064FB0B9A21462846FFF753FF63792F
:1013D000012B4BD1DFF868B1574641E02268C2F1DA
:1013E000010353449F423AD86B6A196853F8370097
:1013F00003EBC703012A53F8083CA3EB0103A0EB5E
:101400000109089311D10B9B0793E368022B08D0C5
:101410004146284606F0D3F822464146284606F0C3
:1014200003F90799284606F0CAF83246494640466D
:1014300006F0C3F8089B42464146CDE9009628468F
:10144000FFF7A2FB2146284606F085F82368013302
:10145000236020B1DBF800300133CBF80030013FCE
:10146000DDF82880002FB9D10123236002236371A6
:1014700001275745DDF8289006D9484606F052FB6B
:101480000B9806F04FFB92E723689F424DD36A6AA0
:10149000DDF82CB052F837100891FB00083B1168BA
:1014A0000791D1582A6DD0581368A0EB030823790F
:1014B000012B38D1079B3246C91A4846099106F0DC
:1014C0007CF80999009143464A46594601962846B8
:1014D000FFF75AFB2146284606F03DF80223237108
:1014E00018B1174A13680133136032464146584613
:1014F00006F063F8DDE9072349469B1ACDE900862B
:101500005A462846FFF740FB2146284606F023F8B6
:101510002368013323600123237130B1084A136823
:101520000133136001E0022BDFD00137A1E700BFD8
:10153000DDA60000889E000001A700002BA7000088
:1015400044160020BFF36F8F72B6124B4FF0FF327C
:10155000C3F88020C3F88420C3F88820C3F88C2007
:10156000C3F89020C3F89420C3F89820C3F89C20B7
:10157000C3F88021C3F88421C3F88821C3F88C21E3
:10158000C3F89021C3F89421C3F89821C3F89C2193
:10159000704700BF00E100E0164A4FF0FF33012121
:1015A0005160C2F84833C2F8083302F5C0425160B6
:1015B000C2F84833C2F8083302F598325160C2F8D5
:1015C0004833C2F80833A2F508320021C2F80015EA
:1015D000C2F8083302F51832C2F80015C2F8083311
:1015E000A2F51042C2F808354FF08042C2F8083325
:1015F000704700BF00B000402DE9F04F91B0840764
:10160000009302F004030293C2F3C20303F1010347
:10161000DDF86890039205460E46059340F0BA81C6
:10162000041D30B1072909D86FF01B0011B0BDE8C7
:10163000F08F01F00706341DC6F10806009B4FF03D
:101640000008591E4FF0040A4FF0FF330193CDF804
:1016500010804746C34653460DB1009A2260059854
:10166000002800F3E8809848009A824203D3974804
:101670008242C0F0E080039AA4EB050E92074FEA85
:101680009E0000F103810F2F00F2B180002D00F0C9
:10169000058107F140020DEB020C019A0CF8200CB9
:1016A0000CF8102C049801300490E7E07A285DD8FB
:1016B0004B280ED8472859D829282DD8252852D06C
:1016C00054D820287AD02338D0F1000B4BEB000BF4
:1016D00074E04C382E2849D8DFE800F070484848BC
:1016E00048484848484848484B4848484848484877
:1016F0004859484B4B595959704B6D487048184BD5
:10170000184848827F4B48484B487F0000204FF0E4
:10171000000B4FF0040A38E02A38C0B2012202FA66
:1017200000F010EA0E0F49D110F0625C2FD110EAE0
:10173000020B43D06046013C5444B4FBFAF40AFB6C
:1017400004F4002D61D0A3EB050CA444B4453FF68E
:101750006BAF002868D1042B47D159F8043B2360B4
:10176000043404232AE0019A013A01924FF0000B5D
:1017700024E011F8010C6C2834D111F8023C00204F
:101780006C2B8346C5D14FF0080A5346D3E709F1C5
:10179000070929F007090734F9E802AB24F0070428
:1017A00035B106982044B0423FF63EAFC4E900ABE5
:1017B00008344FF0000B4FF0080A534611F8010FA0
:1017C000002878D0BBF1000F7FF470AF2528F5D149
:1017D000019B013301934FF0010B4FF0040AECE73A
:1017E000584694E700208346A5E7082B02D06FF007
:1017F00015001BE709F1070929F00709F9E8022399
:10180000C4E9002308340823D8E768B9042B02D1BF
:1018100009F10409A4E7082BE9D109F1070929F026
:10182000070909F10809EDE7059A013A059259F807
:10183000042B009210E7039A900720D5A4EB050E25
:101840004FEA9E004FF0010CBEF5007FCFD20F2F64
:10185000CDD8F5B107F140020DEB020EC0B2019AEE
:101860000EF8200C0EF8102CBCF1000F3FF41AAF4C
:1018700060F07F000EF8200C08F101080137C5F177
:101880000802043406924FF6DA7E97E74FF0000C18
:10189000DAE7BCF1000F01D00136EFE7029802361B
:1018A0000028EBD10098CDE9063106F0EEF9DDE92C
:1018B00006310644E2E7631BB3F5806F97D23DB96A
:1018C000A6F10804E018B1E6C89B000014B20000BD
:1018D000029A28609B082B709DF81030C2B1EB7003
:1018E00085F80280B8F1000F05D008A80022C5F1E4
:1018F000010C97420ED1C5F101030DF120094FF003
:10190000000A01930DF1300B574512D1601B8DE693
:101910006B70E5E710F8013B190608D504EB0C0ED7
:10192000B64503F07F033FF67FAE04F8013B01327A
:10193000DFE7B8F1000F03D099F90020002A17DB88
:10194000029BD3B11AF80B2004F8012B0022019B53
:1019500098182044B0423FF667AE99F8000004F8AA
:10196000010B00990392204606F0BDF9039A144436
:101970000AF1010A09F10109C6E799F8002055F8B2
:1019800022300093029B45F82230009806F07DF942
:10199000421CDCE76FF00D0048E600BF014B186009
:1019A000704700BF080000202DE9F047058B044672
:1019B0002807904611D4022905F0070540F0CD8094
:1019C000204605F0F9FE78B10138218B042811D8A2
:1019D000DFE800F0C3106D85950001290CBF45F0CC
:1019E000100545F02005258388F31188BFF36F8F1C
:1019F000BDE8F08701F0070AAA4500F0A68000279D
:101A0000B9463E46A368002B00F0BD8041F00801B6
:101A1000218388F31188BFF36F8FA168002900F03C
:101A2000BB800D68002900F0B780D1F804803346F0
:101A300052462046C047002D76D02B6829461D46C9
:101A4000F0E701F007035A1F012A1BD8002221F0FA
:101A50000701062B276889B2C4E9002209D13B4659
:101A600003E0628B013262831B68002BF9D141F0E5
:101A700002012183204605F09FFE00287BD041F023
:101A8000200177E0042B0AD121F0070189B22183DC
:101A9000204605F091FE10B141F020012183218BF9
:101AA00001F0070AAA4550D00027B946AAE72369E2
:101AB00021F0070141F00601062DD3F800902183A3
:101AC0002DD1B9F1000F40D041F00801218388F3F6
:101AD0001188BFF36F8F3A492046C84729E021F0AB
:101AE0000701236941F0040189B2042DD3F8049061
:101AF0002183E6D000273E464FF0040A82E721F01A
:101B00000701236941F0050189B2052DD3F808903A
:101B10002183D6D000273E464FF0050A72E7002702
:101B20003E464FF0060A6DE72B4687E7B9F1000FF6
:101B3000D1D14FF02003EFF3118883F31288BFF364
:101B40006F8F238B23F008032383258BEA062ED582
:101B500025F01003238305F007056669218B002E0D
:101B6000BFF66FAF00232768C4E9003321F00701F7
:101B700041F001012183218B01F0070AAA454FF0B2
:101B800000097FF43FAF002F9BD041F00801218373
:101B900088F31188BFF36F8F002FC7D03D68394697
:101BA00033465246204605F033FE2F46F4E7AB0697
:101BB0007FF51AAF25F02003238305F00705FFE624
:101BC0003D7800002DE9F04F814695B08B461746D1
:101BD0001C460025387808B9284658E37B1C252880
:101BE000039306D05946C8470028C0F250830135F8
:101BF000FBE1182200210EA806F080F87B78252B47
:101C00007DD00023781C98469E469C461E46014681
:101C100010F8012B2B2A00F0A18000F29880202AD6
:101C200000F09F80232A00F09F802BB19DF8403068
:101C300043F040038DF84030B8F1000F05D09DF817
:101C4000403043F020038DF84030BEF1000F05D046
:101C50009DF8403043F010038DF84030BCF1000F88
:101C600005D09DF8403043F008038DF840302EB188
:101C70009DF8403043F004038DF840309DF840302B
:101C800003F04400442803D16FF386138DF84030ED
:101C90009DF840302A2A43F080038DF840307FD1F0
:101CA0009DF8412042F001024B1C8DF841201A782A
:101CB0002E2A9DF841200CBF0121002161F3410231
:101CC0008DF8412078D15A782A2A6ED0013300222B
:101CD0004FF00A0C194611F8010BA0F13006092E3D
:101CE00040F295809DF840101292C1F3400040EA06
:101CF000D2700A4660F341028DF840205CE0BA1CC5
:101D000003928DF843309DF84130DA0740F12E817F
:101D100054F8048BB8F1000F07DA9DF8402042F028
:101D200004028DF84020C8F100085E0740F12781C9
:101D300054F804ABBAF1000F80F226819DF84130CF
:101D40006FF341038DF841304FF0FF3A1CE12D2A2B
:101D50000DD0302A7FF469AF012358E74FF0010C12
:101D600055E74FF0010E52E74FF001084FE701260B
:101D70004DE70EFB0262303A0346184610F8016B3D
:101D8000A6F1300CBCF1090FF3D999428FD09DF820
:101D900040101192D20F62F341018DF8401086E796
:101DA0000B4600224FF00A0EE7E79DF8412042F073
:101DB00004028DF8412002331A786C2A47D02BD8C0
:101DC000682A31D06A2A4BD04C2A51D01A4612F8D0
:101DD000013B0392782B9DF841208DF8433000F2AF
:101DE000BE806D2B51D8692B00F2B980572B67D874
:101DF000412B03D0453B022B00F2B1809DF84230CD
:101E0000042262F302038DF84230012373E00CFBDD
:101E10000202303A0B465DE7742A25D07A2AD5D1E2
:101E20009DF8412006210CE05A78682A9DF841204F
:101E300006D1012161F3C6028DF841200233C5E7C6
:101E4000022161F3C6028DF841200133BEE75A78C2
:101E50006C2A9DF8412001D10421EBE70321F0E732
:101E60009DF841200521ECE79DF841200721E8E796
:101E7000BDF8402022F4F04222F0020242F48042F7
:101E800042F00202ADF84020DFE76E3BD9B20123F9
:101E90008B4040F282410B4237D113F0240F51D1D5
:101EA000D8075CD59DF84230032161F302038DF819
:101EB000423002F07803A3F140014B424B411AE05B
:101EC000A3F15801C9B2012000FA01F111F4624FE7
:101ED00094D140F6010631421DD111F4043F3ED0A9
:101EE0009DF8423060F3020302F07802402A8DF838
:101EF000423034D000239DF84020C2F340010B4310
:101F000063F341028DF84020FDE69DF84230022146
:101F100061F30203E8E79DF84210022002F0780224
:101F200060F30201402A8DF8421002BF9DF8401074
:101F300041F001018DF84010632BDBD1131E18BF57
:101F40000123D8E79DF84230032161F3020312F028
:101F5000780F8DF8423014BF01230023CBE79DF8A2
:101F6000403043F001038DF84030C3E79DF9402035
:101F7000002AB4BFDDF844804FF0FF38D5E698075B
:101F80007FF5E2AEDDF848A09DF841100023CDE9D1
:101F900011339DF8423003F00703012BC1F3C30155
:101FA00033D1CB1E042B04D8DFE803F021464621B1
:101FB0002100236801294FEAE372CDE90E321CD1DA
:101FC0009DF93830DA17CDE90E3204349DF84030EF
:101FD00013F0030650D0039B3A465946484605F095
:101FE0000AFD0028C0F253810544039FF2E554F82E
:101FF000043BDA17CDE90E32E8E70229E5D11AB23F
:1020000043F3C033CDE90E23DFE7022B24D1CB1EEF
:10201000042B04D8DFE803F0181010181800012969
:1020200054F8043B4FF0000214D00229CDE90E32DF
:10203000CCD19BB20E93C9E7073424F00704F4E82F
:102040000223CDE90E23C1E754F8043B0E9300238D
:102050000F93BBE7DBB2CDE7042B08D1073424F0A4
:102060000704D4E900230834CDE90E23AEE7032B9F
:10207000ACD154F8043BDDE79DF843007828B4D890
:1020800062281CD825283FF4ADAD5828ADD10DF1FC
:1020900036030093DDE90E0108AB10AA05F065FCDC
:1020A000BAF1000F074680F29A80002F9DD00DF103
:1020B0003603D81B002E00F0C1800130BEE063382B
:1020C000152892D801A252F820F000BFA1210000EB
:1020D000B3210000EB1F0000EB1F0000EB1F00000E
:1020E000EB1F0000B3210000EB1F0000EB1F0000FE
:1020F000EB1F0000EB1F000041220000D92100006F
:10210000FF210000EB1F0000EB1F00002521000055
:10211000EB1F0000D9210000EB1F0000EB1F0000A7
:10212000D9210000BAF1000F0E9F35DB5146384629
:1021300005F0F0FD07EB000A002F3FF456AF002634
:102140009DF8423013F01002059200F093800230A7
:102150005B06119A48BF129B0492104448BFC018F6
:10216000B8F1000F40F3A0809DF84020A8EB0008D4
:10217000C2F380035007069300F19680510640F1A8
:1021800089803EB159463046C84700287FDB069B10
:1021900001351E4630227EE0384605F076FDC9E75F
:1021A0000E9B8DF82030002608AF0DF1210A01208A
:1021B000C6E719075CBFC3F300135E01DDE90E2318
:1021C00048BF2B26002BBFF662AF524263EB43039E
:1021D000CDE90E232D265AE7002658E700269DF864
:1021E00040200DF13603DB1B6FF386129A458DF804
:1021F00040207FF65AAFAAEB0303119355E70E98E0
:1022000090B30DF13603009310AA08AB002105F03E
:10221000ACFBBDF8423003F0EF0343F4F04343F06E
:102220001003BAF1000F0746ADF84230D6DA0028A5
:102230003FF4DBAE0DF13603181A00269A467FE70D
:102240000E9B07293FF6D1AEDFE801F00C04060C27
:1022500008080C0C1D70C8E61D80C6E6EA17C3E925
:102260000052C2E61D60C0E62E4F064607F1050A81
:10227000052065E71A0748BF013069E70793104654
:1022800006925946C8470028DDE9062304DA15B04E
:10229000BDE8F08F202243461946002903F1FF33A1
:1022A000ECDC45446D1A98462EB159463046C84775
:1022B0000028ECDB01359DF84230DA0601D41B071B
:1022C00005D559463020C8470028E0DB0135059B7D
:1022D00033B19DF843005946C8470028D7DB013584
:1022E000049E2E4405E059463020C8470028CEDB26
:1022F0000135731B002BF6DC53463A4659464846D7
:1023000005F079FB0028C2DB0544A844A8EB0503CF
:10231000002B7FF76AAE59462020C8470028B6DB5D
:102320000135F3E776A8000008B504464FF0200217
:10233000EFF3118382F31288BFF36F8F02F054FD25
:10234000204601F019F8034805F029FA00F002FCD4
:10235000FCE700BF7CA8000003F042BA2DE9F0477B
:1023600080462B4805F063FB064670B9294CDFF820
:10237000A890054627464FF0010A4C4507D3B8F10F
:10238000000F02D04FF00109E5B9BDE8F087237BCB
:1023900073B12368DB680BB12046984723681B693B
:1023A00043B9636803221968204600F0C1F801367A
:1023B0001034E2E7204698470028F2D00AFA06F3E4
:1023C0001D43F4E7A84695FAA5F4B4FA84F409FA93
:1023D00004F3260107EB04146FEA030A25EA030558
:1023E000237B5BB1BB591B6963B93E44032273680D
:1023F0002046196808EA0A0800F09AF8002DE2D190
:102400004546C1E7204698470028F7D1EDE700BFD1
:1024100050160020B89E0000D89E0000014B53F8D3
:1024200020007047109F000008B5034608462BB1F6
:10243000044A136000F080FA002008BD6FF0150018
:10244000FBE700BF0C000020054A0648002313707C
:10245000054A1360054A4FF400411360FFF7E4BFDB
:10246000343100202B7A0000481600204C16002042
:1024700070B50B4D2B7843B90120FFF76FFF094C66
:10248000094EB44202D301232B7070BD63685B799F
:102490001BB1236820469B6898471034F1E700BFC2
:1024A00034310020B89E0000D89E000010B50446CC
:1024B000084805F0BCFA5CB1BFF35B8F064B53E8EC
:1024C000001F013943E80012002AF8D1BFF35B8FE7
:1024D00010BD00BF481600204C16002070B50A4BF6
:1024E0000A4C1B680A4E05469847A860B44200D3C0
:1024F00070BD63685B7923B1236829461B68204659
:1025000098471034F2E700BF0C000020B89E00008E
:10251000D89E0000044A054B9B1AB1EBD30F34BF81
:1025200052F8310000207047309E0000B89E000035
:10253000084BC31A10B41B1144680133237143685C
:102540009A7143681960436801225A7110BC05F002
:102550008FBA00BFB89E00002DE9F04F85B002AFE2
:10256000D7E90EA93D6B04460E4693469846BAF14C
:10257000000F33D0C7F80490CDF8009010217A6B8B
:1025800053460020FFF738F80146154A04F00704C7
:102590000BF0070BE40044EA8B1402EA41221443D7
:1025A00044EA055417350D4425F00705ADEB050D3C
:1025B00002ADBAF1000F07D0CDF800907A6B534608
:1025C00005F11000FFF718F8434622463146284629
:1025D00005F051FA0C37BD46BDE8F08F5146D4E7FF
:1025E00000FE0F000EB403B503AB014653F8042BF5
:1025F0000448019305F081FA02B05DF804EB03B0E2
:10260000704700BFA97A0000CA0605D48B064CBFEC
:1026100002490349FFF7E6BF704700BFB3A80000B7
:10262000B2A800002DE9F04F89B09B469DF84C30D0
:102630000493DDE914930593049B0692DDE9167675
:1026400004460D46002B00F0878006F00803079330
:1026500005F00FFA06F0020A024600284BD0864920
:102660002046FFF7BFFF8046BAF1000F08D016F0F2
:10267000440F42D181492A462046FFF7B3FF8044E8
:1026800006F001035BB17E4B049A7E4953F8222089
:102690007D4B2046002A08BF1A46FFF7A3FF06F02D
:1026A0000803002B55D0794B049A794953F822201E
:1026B0002046FFF797FF0546069B2BB175491A4642
:1026C0002046FFF78FFF0544BBF1000F05D072498C
:1026D0005A462046FFF786FF05444544B9F1000FEE
:1026E00049D1002F4FD1F30700F1C0803146204679
:1026F000FFF78AFFB4E08046B6E7684B1868002809
:10270000BDD0674B4FF47A7E1B68B5FBF3F54FF4F1
:102710006162B5FBF0F300FB1355B3FBF2FA0EFB5D
:1027200005F502FB1A323C21B5FBF0FCB2FBF1F3DC
:1027300000FB1C5501FB13220EFB05F50092B5FBB7
:10274000F0F55849CDE901C552462046FFF74AFF4A
:1027500095E706F00805AFE7BBF1010F06D1B9F127
:10276000000F64D1002F7BD000250CE0B9F1000FE1
:10277000F8D04D485CE04D484D494B46224604F0A8
:10278000DBFF002F68D0DFF82C91DFF82CA1102F91
:1027900031462046B84628BF4FF01008FFF734FFF7
:1027A0004FF0000B5D4545DC059B51461A782046ED
:1027B000FFF718FF4FF0010B1BF0070F03D149463D
:1027C0002046FFF70FFFD8453BD9059B514613F82C
:1027D0000B202046FFF706FF0BF1010BBBF1100F9A
:1027E000EAD1364920464FF0000BFFF7FBFE5A4670
:1027F000059B9A5CA2F120015F2928BF2E22304957
:102800002046FFF7EFFE0BF1010BBBF1100F1DD0BF
:102810001BF0070F03D149462046FFF7E3FED845DA
:102820005A46E5D849462046FFF7DCFEEBE71F484D
:10283000049DA1E749462046FFF7D4FE0BF1010BAA
:10284000B0E720492046FFF7CDFEC5E7059BB7EB73
:102850000807434405939AD1049B002B7FF443AFB0
:10286000204609B0BDE8F04F05F04EB9064A0549CB
:102870002046FFF7B7FE39E7BAA80000BEA800005F
:10288000209F0000B9B00000B5A80000349F0000F0
:10289000E3A80000E9A80000EDA8000058160020F9
:1028A00054160020C7A80000C57A0000A97A0000CD
:1028B000FB7A0000FAA80000F2A80000FCA80000C3
:1028C000FEA80000F8A800002DE9F0410F884B6831
:1028D0008E6886B005460C469046C7F382175BB1FA
:1028E000144A9B1A43F3CF01002920DB2078C0F360
:1028F000C200FFF70FFE03462146608851F8102BF7
:102900000197C2F34A22002A01EB0204C0F30B1024
:1029100008BF00210022CDE90408CDE9021400928D
:1029200031462846FFF77EFE06B0BDE8F081002361
:10293000E2E700BF309E0000074A002101239042D9
:1029400006D8064A01B901231360054B1860704789
:1029500040085B000121F2E740420F0054160020BE
:1029600058160020014B01221A70704735310020A3
:10297000014B00201960704770160020024B03487D
:1029800001221A7005F0C0B836310020649F0000A3
:1029900010B5064B18680C46FFF740FD214603466C
:1029A000BDE8104002480A22184700BF70160020F8
:1029B000649F0000F8B5194D07460E4604243246C0
:1029C0003946002004F076F8C8B101232B70144B6F
:1029D0001B782BB93046F8BD5CB92C704FF0FF3432
:1029E000002004F0ABF80028F4D02B78002BF3D1B2
:1029F000F0E7013C41F2883007F0B5F8F0E72B78BA
:102A000013B1013C04D12C702B78002BD7D1E1E716
:102A100041F2883007F0A7F8F6E700BF3531002013
:102A200036310020014B00201960704788160020C5
:102A3000024B034801221A7005F066B839310020B4
:102A4000909F000010B5064B18680C46FFF7E6FC97
:102A500021460346BDE8104002480A22184700BF3D
:102A600088160020909F0000F8B5074F0D460446D9
:102A70004618B44201D12846F8BD14F8011BBB68C2
:102A800001485B689847F4E7749C000070B5114BEF
:102A90001C680D46DCB1104B196800238B4202DB29
:102AA0006FF0010070BD224612F8106B864202D012
:102AB00001331446F2E7E06810B96FF01200F1E755
:102AC00007F056F80028F8D02C600020EAE76FF0F5
:102AD0000C00E7E710000020A09F000070B588B050
:102AE00005460C46C0B269461646FFF7CFFF0028E0
:102AF0001BDB0098C8B14368029383682268019584
:102B0000CDE903360023CDE906230593C56805F01A
:102B100009F86DB12846084901AA05F02CFA079872
:102B200008B9059B236008B070BD6FF01500FAE787
:102B30006FF01200F7E700BFBF7B0000014804F010
:102B4000F1B900BF24A00000014910220A607047BB
:102B500010ED00E072B6404080F31188BFF36F8F34
:102B6000BFF34F8F30BF62B6BFF36F8F704700BFA8
:102B700072B6494081F31188BFF34F8F20BF80F3B5
:102B8000118862B6704700BF70B5064686B00D4624
:102B9000002938D08B6805934B6804930B68039326
:102BA00000241C4B1C490293012223462046CDE9F8
:102BB000004405F02BF86B6905932B690493EB68CF
:102BC0000393164B14490094CDE901430122234697
:102BD000204605F01BF8EB690393114B0E49009456
:102BE000CDE9014301222346204605F00FF8AB69E9
:102BF00003930C4B08490094CDE90143012223467D
:102C0000204605F003F82946304606B0BDE870407E
:102C100003F09EBF4BA90000989E00007AA9000017
:102C2000A9A90000B8A9000040B2002807DB044AA7
:102C30004109012300F01F00834042F82130704712
:102C400000E100E040B200280CDB4309064900F037
:102C50001F0020330122824041F82320BFF34F8F11
:102C6000BFF36F8F704700BF00E100E0054B4209E2
:102C700000F01F0053F82220012303FA00F0104057
:102C8000704700BF00E100E040B20028A8BF00F19B
:102C9000604001F10101B8BF064B4FEA4111ACBFE2
:102CA00000F5614000F00F00C9B2B4BF195480F8BC
:102CB0000013704714ED00E030BFFFF7FDBF00BF09
:102CC0000B4A08B50B4B22F07F029A60BFF34F8F7F
:102CD000BFF36F8FD3F8882022F47002C3F88820E6
:102CE00003F0C6FF04F00EF800F010FB03F0CCFF79
:102CF0000000000000ED00E01EF0040F0CBFEFF339
:102D00000880EFF30980816911F8021C0229FFD0C5
:102D100001B504F08BFF01BD04462025084611468D
:102D20001A46084B83F3098863B64FF0000383F318
:102D30001188BFF36F8FA04785F31188BFF36F8FA2
:102D4000FEE700BF5865002001B5EFF30580A0F154
:102D500010004FEAC0000449014409C99847BDE882
:102D60000140024908470000B09C0000712D00009E
:102D7000704700BFF0B585B00024414B0293CDE908
:102D80000044234607460E4601223E49204604F0F1
:102D90005CFF3D4B9B6ADD066FD53C4B3949009487
:102DA000CDE9014320462346012204F04EFF1120C5
:102DB000354B9B6A1C070AD5354B029300231846F6
:102DC000CDE900332F49012204F03FFF12202E4DA0
:102DD000AB6A99071FD500242E4B0293012223468C
:102DE000CDE900442749204604F02FFF6B6BAA6A07
:102DF00012060FD50393284B22490094CDE90143D5
:102E000001222346204604F020FF1FB1AB6A23F0C5
:102E10008003AB6213201C4B9B6ADD070AD51F4B56
:102E2000029300231846CDE900331649012204F02D
:102E30000CFF1420144B9B6A9C060AD5184B029376
:102E400000231846CDE900330E49012204F0FDFEAF
:102E500015200D4B9A6AD10658BF9A6A9A6A920653
:102E600042BF5A6A22F400525A629A6A42F0FF0242
:102E70009A620023337005B0F0BD102098E700BFC0
:102E8000E6A90000989E000000ED00E0FCA900000B
:102E90002FAA000042AA00005AAA000070AA00004F
:102EA0008FAA0000F0B585B00024434B0293CDE912
:102EB0000044234607460E4601224049204604F0BE
:102EC000C4FE3F4B9B6ADB0465D53E4B3B490094F7
:102ED000CDE9014320462346012204F0B6FE172027
:102EE000374B9B6A1D050AD5374B029300231846C2
:102EF000CDE900333149012204F0A7FE1820304DFE
:102F0000AB6A9C051FD50024304B02930122234657
:102F10002046CDE90044294904F097FEAB6BAA6A2C
:102F200010040FD503932A4B24490094CDE90143A3
:102F300001222346204604F088FE1FB1AB6A23F429
:102F40000043AB6219201E4B9B6A59050AD5214BE1
:102F5000029300231846CDE900331849012204F0FA
:102F600074FE1A20164A936A13F4807315D01A4B14
:102F7000029300231846CDE900331049012204F0E2
:102F800064FE1B200E4A936A43F47F43936200233E
:102F9000337005B0F0BD1620A2E7926A9204F1D515
:102FA0000E4A06490093CDE901321846012204F089
:102FB0004CFE1C20E6E700BFBEAA0000989E000061
:102FC00000ED00E0D4AA00002FAA0000E5AA00004E
:102FD000FEAA000013AB00002EAB00008FAA000079
:102FE0001FB50024374B029301222346CDE900444C
:102FF0003549204604F029FE344B9B6A9A015ED580
:10300000334B31490094CDE9014320462346012248
:1030100004F01BFE1E202D4B9B6ADB010AD52D4BB5
:10302000029300231846CDE900332749012204F01A
:103030000CFE1F20254B9B6A1C030AD5264B0293CE
:1030400000231846CDE900331F49012204F0FDFD9D
:1030500021201E4B9B6A59030AD5204B0293002363
:103060001846CDE900331849012204F0EEFD222074
:10307000164B9B6A9A030AD5194B029300231846F4
:10308000CDE900331049012204F0DFFD23200F4B6E
:103090009B6ADB030AD5134B029300231846CDE944
:1030A00000330949012204F0D0FD2420074A936A25
:1030B0006FEA03436FEA1343936204B010BD1D200F
:1030C000A9E700BF46AB0000989E000000ED00E0BD
:1030D0005EAB000071AB00008BAB0000A9AB000041
:1030E000CEAB0000E8AB00002DE9F041724B5F6809
:1030F00090B00646C7F30804002383F31188BFF39A
:103100006F8F02F07F40B0F17F4F0CD102F00C00C6
:10311000082819D1694A6A490093CDE90132184655
:10312000012204F092FD00252E464FF00008E31E18
:103130008DF81F80092B00F2A580DFE803F00B99C2
:103140009D95A3A3A3A3A3A1120746BF0E461D46A8
:103150000125EAE75B4B5A49574FCDF80080CDE98E
:10316000018300230122184604F06FFD8DF81F80B3
:10317000FC6A14F0020405D0534BCDF80080CDE971
:10318000018306E0FB6A002B0BDA504B0094CDE97B
:10319000014300234A490122184604F056FD002449
:1031A00039E0FB6A5B00FAD5494B45490094CDE90B
:1031B000014301222346204604F047FD7B69B269A2
:1031C00043F480737B61BFF34F8FBFF36F8F7B69D5
:1031D00032F8022C23F480737B61BFF34F8FBFF36F
:1031E0006F8F4DF602739A4208D0BB6ADBB26BB3A5
:1031F0000DF11F010120FFF7BDFD37E03368039398
:10320000344B0094CDE90143204623462C4901224A
:1032100004F01BFD34689DF81F30A3B9202231460D
:103220000DEB020004F05FFD0F9B002D3ED0C3F3B9
:10323000080222B96FEA53236FEA43230F9308A9C8
:103240002046FFF7A1FC10B0BDE8F081BB6A13F483
:103250007F4F05D00DF11F010120FFF723FE05E090
:10326000BB6AB3F5803F9AD3FFF7BAFE0446D2E7B4
:103270000DF11F010020BEE70DF11F010020ECE75A
:10328000154B7AE7154A164B0D4917F4F87F18BF0E
:103290001346103CCDE90334124B02930023CDE9D1
:1032A00000330122184604F0D0FC78E723F4FF73C2
:1032B00023F00103C2E700BF00ED00E041AC0000D5
:1032C000989E00006CAC000083AC0000A4AC000031
:1032D000B2AC0000D1AC0000EDAC000028AC0000A6
:1032E00013AC000011AD0000024A536943F0100313
:1032F0005361704700ED00E0EFF30880EFF30981C0
:1033000001B57246FFF7F0FE01BD00BF044800237F
:103310002021C2180133302B82F80013F9D17047F5
:1033200000E100E0002080F31488BFF36F8FFFF707
:1033300013F800200D490860BFF34F8F0C4880F34D
:10334000088800F03DF8202080F3118809484FF4E8
:103350000061401880F30988EFF3148002210843CC
:1033600080F31488BFF36F8FFFF7AAFC94ED00E0A1
:103370005865002058350020BFF34F8F0549064B94
:10338000CA6802F4E0621343CB60BFF34F8F00BF03
:10339000FDE700BF00ED00E00400FA050749D1F8A1
:1033A00090200023C2F307221846934200DB7047A7
:1033B000C1F89830C1F8A0000133F6E700ED00E055
:1033C00008B572B6002383F31388FFF7E7FF144BA9
:1033D0004FF0FF32C3F88020C3F88420C3F8882060
:1033E000C3F88C20C3F89020C3F89420C3F8982029
:1033F000C3F89C20C3F88021C3F88421C3F8882136
:10340000C3F88C21C3F89021C3F89421C3F8982104
:10341000C3F89C2162B6BFF34F8FBFF36F8F08BD17
:1034200000E100E0024B034A0348012100F076B8B6
:1034300000000420000000202CA00000F0B5284E61
:1034400085B000258D4215DA4468002C45D0D3B1F3
:1034500004F1FF3C14EA0C0F0FD0224B03950293AA
:1034600000230122CDE900331F49184604F0FDFB7B
:103470006FF01502104605B0F0BD1F2CEDD907689E
:103480001CEA070FE9D1202C0768D0F808C05FFAC2
:1034900082FE10D9B4F1004F0FD8013CB4FA84F485
:1034A000C4F11F046400BEF1070F4CEA040C06D9F6
:1034B0000E4B0392D3E70824F5E73E24F3E727F009
:1034C0001F04144344F01004C6F89820C6F89C402A
:1034D0004CF00104C6F8A040013201350C30B1E7D0
:1034E00000ED00E028AD0000909E00004BAD000014
:1034F000044B0522C3F89420BFF34F8FBFF36F8FA7
:10350000704700BF00ED00E0BFF35F8F024B002269
:10351000C3F89420704700BF00ED00E010B5034CE5
:1035200001232278FFF78AFF207010BD3A31002076
:1035300014490868082810B521D8FFF7E5FF124C98
:1035400049680022904201F10C0105D10F4B18701F
:10355000FFF7CEFF002010BDC4F8982051F80C3CB6
:1035600023F01F03134343F01003C4F89C3051F8B9
:10357000043C43F00103C4F8A0300132E2E74FF00D
:10358000FF30E8E738A0000000ED00E03A3100200D
:10359000014B1860704700BF140000200E4A012341
:1035A000C2F840354FF080424FF08051C2F8783574
:1035B000D1F83001082808D1D1F83411052904D8F0
:1035C0000648415C09B1C2F838364FF08043012209
:1035D000C3F880250020704700E0014080AD000066
:1035E00020B1034B800143F001031847704700BF2F
:1035F000E09E0000084B70B5C31A0D4607499B10AA
:10360000044659430648402204F0A9FB2B460146D4
:103610002046BDE870401847A0160020B76DDBB605
:10362000389C000073B50C4C0C4A4023041B0093DB
:103630000D460B460A49A41061430646094804F0AA
:10364000BAFB011E05DA30462B4602B0BDE87040D9
:10365000184702B070BD00BFA0160020277E0000F2
:10366000B76DDBB6389C000010B54FF02003EFF3C8
:10367000118483F31288BFF36F8F074A136823F016
:103680000201DB07116002D4012006F0DDF984F3AA
:103690001188BFF36F8F10BDF0160020002270B5A7
:1036A000012104461046FFF7EFFA0F4802F022FA14
:1036B0000E4B984215D106F07EF926690C4930462A
:1036C00004F0CAF800280BDB012535642469084999
:1036D00004F11C0004F0C0F8002801DBE5640020C0
:1036E00070BD6FF00400FBE7293700000000AD0B50
:1036F00058A0000070B501460C2309484B43C4187C
:10370000D4E90E56403300221844A26304F014FB9F
:103710002DB132462B460348BDE87040184770BDB6
:10372000A0160020389C000010B1012804D070477A
:10373000034B1B6C5B0701D1FFF7DCBF704700BF79
:10374000A016002008B54FF02003EFF3118183F39A
:103750001288BFF36F8F124A136843F002001060A3
:10376000DA0708D481F31188BFF36F8F0120BDE819
:10377000084006F02DB94FF08043D3F80C24D3F85D
:103780000C34DB07EED5074804F0D6FA81F3118834
:10379000BFF36F8F0020BDE80840FFF7ABBF00BF4D
:1037A000F0160020E01600202DE9F8433649BFF35B
:1037B0005B8F0746012251E8003F41E800200028C6
:1037C000F9D1BFF35B8F33B9304931484B60CB60DF
:1037D0008A6004F054F87B1E012B2DD8012F07D1ED
:1037E0004FF08043D3F81C3403F00303012B23D0A4
:1037F00006F0DDF9054608BB264B1B78F3B14FF008
:1038000080430222C3F808230646DFF88C904FF06D
:1038100080444FF00108D4F81824D4F81834D203A7
:1038200016D503F00303012B01D0012F10D12DB3C6
:1038300086F31188BFF36F8FBDE8F8834FF0200344
:10384000EFF3118683F31288BFF36F8F0125DCE756
:103850003046FFF78DF9D4F81835002BDBD1D4F8BA
:103860000421002AD7D0C4F80431D4F80431C4F8B4
:103870001885C9F88081C4F80880CCE74FF08043F0
:103880000222C3F80423D7E79C1600208C160020E0
:10389000BC1600205135002000E100E008B50748C3
:1038A00006F066F938B10648FFF772FE0448FEF7E5
:1038B00075F8002008BD6FF01200FBE7749C000053
:1038C000C53800000A2838B5074D044604D1AB6856
:1038D0000D215B6828469847AB6803485B68E1B2F6
:1038E0009847204638BD00BF749C000000F174402A
:1038F00000F5A6000A289ABF024B33F910006FF0BA
:103900000F00704798A30000024B0B600123136067
:10391000704700BF14A100000048704798A0000045
:1039200010B5026953787BB9084C217851B9084920
:10393000406802F039FFFFF7D9FF0346B0FA80F084
:1039400040092070184610BD0023FBE73D310020E0
:10395000457E000030B50D46416889B0E9B1D1E936
:1039600000138468DCB1D4E90024CCB1C3B19C421B
:103970000FD10133092B007815D9CDE90303144B7E
:1039800002930023CDE9003312490222184604F0C5
:103990005DFA6FF0150009B030BD0B46E1E7224635
:1039A00001332344E6E78DF8193040F201138DF816
:1039B0001800ADF81A3006A800238DF81C308DF8D9
:1039C0001D5002F01DFF09B0BDE83040FFF78EBF6B
:1039D000B3AD0000A09E00000C4B994210B5044608
:1039E0000FD14FF02003EFF3118083F31288BFF360
:1039F0006F8F237833B10023237080F31188BFF3D6
:103A00006F8F10BDFFF7B4F8EBE700BF0000AD0B00
:103A100010B543784BB9084C02F03EFFA04205D1E7
:103A200002F05CFF054B00221A7010BD4CF25030C2
:103A300006F099F8F0E700BF0000AD0B3D31002023
:103A40002DE9F04F81468BB00E461C469046AAB138
:103A5000002B00F097800029426803DB926ACB18A4
:103A6000934211D9484B02930023CDE90364CDE979
:103A7000003346490122184604F0E8F96FF01505B5
:103A800028460BB0BDE8F08FFFF74AFF0546002837
:103A900073D1754205F00305A54228BF2546D8F12C
:103AA000000303F0030308F0030758BF5F427F429F
:103AB00007F00307A74228BF2746631BE41B24F037
:103AC000030423F0030AA245C8BFA24603F0030B78
:103AD000C8BFA3EB040BBAF1000F19D008EB070322
:103AE000721951461846079306F02FF8044601460E
:103AF000D9F81000FFF770FF254A944239D1BD4232
:103B000006D0079B5246194608EB050004F0D4F88E
:103B1000ADB1C5F10407F21B042108A806F015F8A1
:103B200004460146D9F81000FFF756FF184B9C4297
:103B30001FD108AB2A46D919404604F0D4F8BBF18E
:103B4000000F15D072195244082108A805F0FDFF96
:103B500004460146D9F81000FFF73EFF0C4B9C428B
:103B600007D10AEB05005A4608A9404404F0BBF807
:103B7000074C2046FFF7BAFE0546D9F81000FFF7BC
:103B800047FF7DE71D467BE7D6AD0000A09E000005
:103B90000000AD0B2DE9F047064688B00F461D46E4
:103BA0009046CAB1C3B1042B01D99A0714D1BB07FF
:103BB00012D1002F726803DB926A7B19934211D9EC
:103BC0003A4B02930023CDE90375CDE90033384920
:103BD0000122184604F03AF96FF01504204608B0A7
:103BE000BDE8F0873046FFF79BFE044650B904F06D
:103BF00057F9044650B1012004F052F92046FFF76E
:103C000075FE04463069FFF703FFE7E7032D1CD874
:103C10003A46042107A805F098FF0446014630699A
:103C2000FFF7DAFE234B9C4234D12A46414607A8CF
:103C300004F059F83A46042107A805F083FF04462A
:103C400001463069FFF7C8FE24E008F06043B3F195
:103C5000005F02D118F0030F23D0DFF858A0042D25
:103C6000A94628BF4FF004094A46414607A804F078
:103C70003AF83A46494607A805F064FF044601466B
:103C80003069FFF7A9FE544504D1B5EB0905C844D6
:103C90004F44E4D1012004F003F9002C08BF04468E
:103CA000ACE73A4629464046C7E700BF1FAE0000D2
:103CB000A09E00000000AD0B2DE9F04143681E6B93
:103CC00090B005460DAA0021304604F0D5F9041E37
:103CD00043DB0D9B32681979186800F0F3FB041E72
:103CE0003BDB002201212920FEF7CEFF6E682A6906
:103CF0005C49304602F058FDFFF7F8FD041E2CDB4E
:103D00000021AB230DA8CDE90D110F918DF83430B2
:103D1000FFF720FE041E20DB232005F024FF737F25
:103D2000023B012B1DD996F81C80A8F10308B8F1BD
:103D3000010F8CBF4FF000084FF0010804F095F818
:103D4000041E11DA484B02930023CDE900334749A2
:103D500003940122184604F079F8204610B0BDE81B
:103D6000F0814FF00108E9E7E2B2C4F38014A04506
:103D70000AAE0BAF2DD00023012182F040020DA826
:103D8000CDE90C13ADF828300B968DF828200F9351
:103D90008DF834100E97FFF7DDFD041E13D0DCDA2A
:103DA000334A344B3149B8F1000F18BF1346CDE9FF
:103DB0000334314B02930023CDE90033012218462E
:103DC00004F044F8C9E704F050F8041EE8DBE30708
:103DD000F9D42869FFF71CFE03240023CDE90C4326
:103DE0000E9328469F230B968DF834300F97FFF7DC
:103DF00097FD014628B12869FFF70AFE6FF012040B
:103E0000ABE70DA8FFF7A6FD07462869FFF700FE00
:103E1000002FF3D16D682246314605F12C0003F0E6
:103E20003BFF0446002898D095F82E30089395F86B
:103E30002D30079395F82C3006939DF82A30059382
:103E40009DF8293004939DF8283003930B4B0749C4
:103E50000097CDE9017301223B46384603F0F6FF97
:103E6000CCE700BF457E00006FAE0000A09E0000C2
:103E700053A6000069AE00007FAE000090AE0000C7
:103E80002DE9F04F0029D0F804A087B080461546F0
:103E900005DBDAF828308A189A420F4611D93F4BD1
:103EA00002930023CDE90315CDE900333C490122FB
:103EB000184603F0CBFF6FF01504204607B0BDE8AD
:103EC000F08FC1F30B02002DF5D0C5F30B031343A4
:103ED000F1D1FFF725FD0446F0B903F0E1FF0446F8
:103EE000D0B9DFF8C0B0DAF82830AB4219D105F00C
:103EF0002FFEA9460646D8F810003146FFF76CFDA4
:103F00005E453AD1B5EB09054F44ECD1012003F0F1
:103F1000C7FF002C08BF0446D8F81000FFF778FD53
:103F2000CBE7B5F5803F09D3BBB253B93946012081
:103F300002F02AFD4FF480390646DCE7B5F5805FD4
:103F400009D3C7F30B0030B9394602F01DFD4FF419
:103F500080590646CFE7144B029300231846CDE95B
:103F600000330F49114E0122CDE9037503F06EFFB6
:103F70000E49D8F81000FFF72FFD0D4B02930023D8
:103F80001846CDE90033CDE903750549012203F058
:103F90005DFF3046FFF7AAFC0446B7E7C2AE00005B
:103FA000A09E00000000AD0B0CAF00000400AD0BA4
:103FB0002AAF0000024B0B6001231360704700BF63
:103FC000F41600200048704730A1000010B505F03D
:103FD000B2FD034C206005F0AAFD6060002010BD1A
:103FE000F416002070B50D4686B0194628461C46CA
:103FF000164603F06AFF034668B90B4A0090CDE904
:104000000102CDE903540949012203F06FFF6FF06B
:10401000150006B070BD24B122462946304603F093
:1040200062FE0020F5E700BF5EAF0000689E000062
:104030000A48037883B14FF08042D2F81015D2F8C5
:10404000103501F01E0123F01F030B4343F0010361
:10405000C2F8103500230370704700BF3E310020C6
:104060004FF08053D3F83031082B20D14FF08042ED
:10407000D2F81015CB071AD5D2F8103501F01E0171
:1040800023F01F030B43C2F81035D2F808315BB19F
:10409000D2F8103523F01F030B4343F00103C2F89D
:1040A00010356FF08B007047024B01221A70002010
:1040B000704700BF3E3100202DE9F04186B08846B0
:1040C000154605F034FD29460646404603F0FDFE40
:1040D0004746034680B3B8FBF6F306FB138323B9C8
:1040E000B5FBF6F406FB145474B1184B029300238D
:1040F000CDE90385CDE9003315490122184603F0C7
:10410000F5FE6FF0150410E0AE420ED805F00FFD7D
:104110000646FFF7A5FF044658B9384602F00CF9E9
:10412000FFF786FFAD1B3744F3D1204606B0BDE84C
:10413000F0816FF08B04F8E7064A05490090CDE95D
:104140000102CDE903850122D9E700BF7BAF000062
:10415000689E00005EAF0000F0B50D4687B01946BE
:1041600028461C46164603F0B0FE034668B9264AA8
:104170000090CDE90102CDE903542449012203F066
:10418000B5FE6FF0150007B0F0BDD4B315F003070E
:1041900011D0C7F10407A74228BF2746FFF760FFE9
:1041A00060BB314628463A4602F0F4F8FFF740FF7C
:1041B0003D443E44E41B2544032CA5EB040711D8E1
:1041C0004CB1FFF74DFFC8B922463146384602F0E0
:1041D000E1F8FFF72DFF0E4AD2F80034DB07FBD5DC
:1041E0000020D0E7FFF73CFF40B956F8041B3846E3
:1041F00002F0C2F8043CFFF71BFFDDE76FF08B0015
:10420000C1E72046BFE700BF5EAF0000689E000028
:1042100000E0014030B54068057B01F01F04B2F5B5
:10422000001F85B044EA451405D1204601F03EFF49
:10423000002005B030BD0025B2F5800FCDE9025554
:1042400014D1B3F1007F0CBF042305238DF808308F
:104250000023194602AA204601F044FD234B984250
:104260003DD10121204601F0D3FEE1E7B3F1C06F5B
:1042700027D0B3F1007F14BF012302238DF808304B
:10428000836823FA01F111F00101E1D1B2F1A07FBD
:10429000DED104F01F03620903F5E07313D0012A95
:1042A00020D1134A52F82330DB07D1D40DF1070592
:1042B0002946204601F056FE0E4B984206D0039543
:1042C000C6E70323DAE74FF0A042EBE7284601F008
:1042D00099FE064B9842F2D06FF00B00A9E76FF001
:1042E0001500A6E751F82330FFDE00BF0000AD0B3C
:1042F000000300500400AD0B10B501F073FE04463E
:1043000068B901F047FE084B98420AD10748214698
:1043100001F022FE224605210620FEF7B5FC002012
:1043200010BD6FF00400FBE70000AD0B314300004F
:10433000420970B5034602D0012A17D070BD0D4E58
:10434000326951680029F9D003F01F0301250C6878
:104350009D400029F2D08A682A4002D04B6830463E
:1043600098472CB1236821461C46F2E7024EE7E746
:104370002346F8E7609C00004C9C00002DE9FF41BB
:1043800047683B7B01F01F0545EA43150E4628466A
:104390000DF10701144601F0E5FD14F4403F80469D
:1043A0000DD1284601F0A8FE3D4B984503D19DF85C
:1043B000070001F021FE002004B0BDE8F0810023D9
:1043C000194602AA2846CDE9023301F08BFC344B92
:1043D000984214D1804503D19DF8070001F00CFEEE
:1043E000A3034ED540F206332340B3F5837F1AD0A2
:1043F0000DD8062B18D005D8B3B1022B33D06FF0EF
:104400001500D9E7B3F5807FF9D101230CE040F224
:104410000222934229D0B3F5407F28D0B3F5007F24
:10442000EDD1022300E007238DF8083084F48033B7
:10443000C3F30043E0068DF8093054BFC4F34013C2
:10444000032321038DF80A3013D57A680123B34082
:10445000C2F80835002202A9284601F003FD104BDE
:104460009842A8D0CBE70423DEE70523DCE703234B
:10447000DAE7620341BF01237A68B340C2F80C3522
:10448000E8E7E3064FF0000354BFC4F340140324ED
:104490001A4602A928468DF8084001F023FCDEE701
:1044A0000000AD0B036803F01F025B09026004D03B
:1044B000012B034818BF002070474FF0A040704701
:1044C000000300502DE9F04FDFF8849185B01546C8
:1044D000824600EB81014FF00108514503D10020D5
:1044E00005B0BDE8F08FDAF8003003F07F04C3F3C5
:1044F00043277F2C4FEA134308BF4FF0FF34222B92
:1045000000F2A380DFE803F012232B442E3544A1F0
:10451000A1A1A14773A1A1A1A1A1A1A1A1A176815E
:104520008487A1A1A18A909396999C00C5F80C4517
:10453000601C1BD003A80394FFF7B4FF039B08FA89
:1045400003F3C0F8083501264FF0010B2CE0C5F845
:104550001445631C0AD000264FF0000B24E0C5F878
:104560000845E5E7621CC5F808456CD10AF1040A64
:10457000B3E7631CC5F80C45F8D0012603A80394E3
:10458000FFF790FF039B08FA03F3C0F80C35DBE755
:10459000C5F81045DDE7C5F80845002FD9D1671CDF
:1045A000E4D00026B3460627DAF80030019303F47E
:1045B0000052002A03A81CBF01264FF0000B0394F1
:1045C000FFF770FF039A019B00EB8200C3F3C11455
:1045D000D0F800273B0243EA840343EA0B0302EAD4
:1045E0000902134343EA4603C0F80037BEE7C5F8A3
:1045F0000C45D2E7C5F86045661CDAF80030B5D046
:10460000C3F38033002BB8D094E7C5F86445F3E7D3
:10461000C5F86845F0E7C5F86C45EDE7C5F82445F1
:10462000621CA3D0012697E7C5F8284580E7C5F8A6
:104630003045F5E7C5F83445F2E7C5F83845EFE70A
:10464000C5F83C45ECE7002698E76FF0850047E7A2
:10465000F0F8FCFF7FB50BAB05930393054B02937A
:104660000023CDE9003301221846FDF775FF07B09E
:104670005DF804FBDAAF0000F8B5044607690D46A3
:1046800005F095FA90B92C4B1B787BB164266068D5
:1046900003F028FDE0B9012005F081F9013EF6D1D3
:1046A000F4E786F31188BFF36F8FEFE74FF0200335
:1046B000EFF3118683F31288BFF36F8F6068314682
:1046C00003F010FD90B986F31188BFF36F8FEDE70B
:1046D0004FF02003EFF3118683F31288BFF36F8F3F
:1046E0006068314603F0FEFC0028DAD03B691D709B
:1046F000626838691368C3F844050120C3F84805A7
:104700000020C3F82001D3F82051C3F858015268A3
:10471000D3F85801D20608D5626812680820C2F89A
:1047200000054FF48002C3F8042301229A6081F34C
:104730001188BFF36F8FF8BD51350020F0B54B796C
:10474000012B26D0032B21D110258B79032B1DD1D2
:10475000CE790EB1012E19D10A7912B1022A15D1E2
:104760000E220B684468B3F5164F276867D02DD822
:10477000B3F5165F66D016D8B3F5966F64D00AD835
:10478000B3F5967F63D0B3F5167F63D06FF08500E5
:1047900054E00025D9E7B3F5166F5ED0B3F5965F08
:1047A000F4D1384B3CE0B3F5E14F59D007D8B3F51D
:1047B000615F57D0B3F5964FE8D1334B30E047F601
:1047C0001224A342E2D14FF4000329E0B3F5613F84
:1047D0004AD013D8B3F5963F49D009D84DF6C02436
:1047E000A34246D0B3F5614FD0D14FF46B0317E02D
:1047F000B3F5E13FCAD14FF0EB7311E0B3F5612F90
:104800003AD008D8214CA34239D0B3F5E12FBDD11D
:104810004FF0E86304E01E4CA342B7D14FF0805341
:104820000469C7F82435436835431B682A43C3F835
:104830006C2503C9231D83E803000020F0BD4FF45D
:104840001D03EDE7134BEBE74FF49E23E8E74FF42E
:10485000A033E5E74FF41C33E2E74FF41D23DFE715
:104860000D4BDDE70D4BDBE74FF06C73D8E70C4BDE
:10487000D6E74FF46503D3E74FF07063D0E74FF00E
:104880008063CDE700B0130000A04E0090D003007D
:1048900040420F000050270000C0750000F03A00B1
:1048A00000903A012DE9F043002287B080460121B3
:1048B0000220FEF7E9F90220FEF7B6F9D8F80470F5
:1048C000D8F810603D680021C5F80015C6F80080D2
:1048D000D7F80C9005AA484603F0CEFB041E24DB53
:1048E000059BD9F8002019791868FFF7EBFD041E25
:1048F0001BDB311D4046FFF721FF0446A8B97B684A
:10490000990722D506F1180001F086FD234B984245
:104910000FD0234B0094CDE9014320462346214983
:104920000122FFF797FE6FF00404204607B0BDE8B0
:10493000F083307E05F10C0205F5907105F031F839
:10494000337E0120984001F06DF80823C5F800354A
:104950003B7A53B9C5F81031D5F810317369C5F8F1
:1049600034350123C5F838352B607B689A075CBF66
:104970004FF48073C5F804337B68DB0644BF4FF403
:104980008003C5F804333369C5F844350023C5F8FE
:1049900048350123AB60EB60C7E700BF0000AD0BFB
:1049A000DAAF0000B09E000070B5012383400E4ACC
:1049B000BFF35B8FDC4352E8001F01EA040542E8C5
:1049C0000056002EF7D1BFF35B8F4FF48032824048
:1049D0000648C0F80823BFF35F8FBFF36F8F0B4209
:1049E00014BF0120002070BD1817002000100140E6
:1049F00070B40E49D1E90034D01AC31844F1000450
:104A000022F07F46C1E90034A6F50013B3F5400F4C
:104A100009D2074B1B681A0A1B069C19054B42F169
:104A20000005C3E9004570BC02F0CCB94801002084
:104A30001C1700205001002011B3BFF35B8F01232E
:104A4000104A834052E800CF4CEA030C42E800C110
:104A50000029F7D1BFF35B8F0B4A4FF480338340BB
:104A6000C2F80433094BBFF35B8F1B68BFF35B8F46
:104A7000C340DB0742BF064B4FF40032C3F80021AE
:104A8000704700BF181700200010014014170020C5
:104A900000E100E00D4B1868010A0006BFF35F8FCC
:104AA0000B4BD3F80435181841F10001B3F5801F02
:104AB0000AD2084BD3E90023904271EB030303D2DF
:104AC00010F1807041F10001704700BF1C170020F9
:104AD00000100140500100202DE9F04F85B016462E
:104AE0001F469DF840A00446FFF75EFF0190FFF7C8
:104AF000D1FFB04271EB070354D23E4B301A67EB43
:104B00000101984271F100014FD23B4B03EB0413BA
:104B1000D3E902239F4208BF96425ED037494FF443
:104B2000803804F1500508FA04F8AD00C1F8488354
:104B30002046ADB203F01FFB26F07F4B05F1804508
:104B400004F5A87305F58835DC464FF00309029398
:104B5000029A2CF07F4341F82230C1F84483D1F807
:104B60000435274A6FF00200C01A604420F07F40ED
:104B7000904232D9286868B1D1F804350393A3EB89
:104B80000B0020F07F40B0F5000F26D9204603F03F
:104B9000F2FA039BBAF1000F07D109EB030C09F1FC
:104BA0000109D5E7BAF1000F09D06FF015052046CD
:104BB0000199FFF741FF284605B0BDE8F08F0123BA
:104BC000104ABFF35B8FA34052E8000F184342E83E
:104BD00000010029F8D1BFF35B8F07490E9823012C
:104BE00001EB0412C8500F9B5360C2E90267002515
:104BF000DDE700BF01008000380100200010014007
:104C0000FDFF7F001417002030B51C4D1C4BC5F86C
:104C10000833C5F848331B4B00244FF0FF304FF0EA
:104C2000FF31C5F80845C3E902014FF48033C5F8E8
:104C300004330223C5F80433134B4FF4003285B01C
:104C40000121C3F8802111202246FEF71DF8112012
:104C5000FDF7EAFF0D4A0123AB602B6013600C4B9C
:104C60000C4A0093CDE9014400232046FFF734FFAE
:104C70002046FEF799FD204605B030BD00100140EA
:104C800003000F003801002000E100E018170020A9
:104C9000F1490000FFFF7F002DE9F7432F4CD4F8C6
:104CA000043399070BD5D4F8043143B12C4A0023BF
:104CB000C4F80431D4F80431136801331360D4F814
:104CC0000433DA032AD5BFF35B8F264B53E8002F5A
:104CD00022F0010143E800100028F7D1BFF35B8FF9
:104CE000D30702D4D4F84031C3B10025C4F84051F1
:104CF000D4F84031FFF7CEFE4FF02003EFF31182DE
:104D000083F31288BFF36F8F174BD3E90267B0426A
:104D1000B94106D282F31188BFF36F8F03B0BDE8AB
:104D2000F0834FF0FF384FF0FF39C3E90289D3E930
:104D300000101D604FF48033C4F84833C4F840516C
:104D4000D4F8403182F31188BFF36F8F0029E5D08A
:104D5000009032463B4628468847DFE70010014076
:104D60001C17002014170020380100201FB5431C19
:104D700023D0012823DD134A134B9042D4BF0446AD
:104D80001C46FFF787FE114B0F49D3E90023801A19
:104D9000B0F5000F28BF002404448C4228BF0C4605
:104DA000A2180B4900914FF00000CDE9010043F13A
:104DB0000003FFF791FE04B010BD034CE1E70124AE
:104DC000DFE700BFFEFF7F00FFFF7F0048010020FC
:104DD000F149000008B5FFF75DFE024B1B68C01AE1
:104DE00008BD00BF4801002010B5084C01236360D6
:104DF0001120FDF727FF064BC4F80833C4F84833E9
:104E0000044B4FF40032C3F8802110BD0010014064
:104E100003000F0000E100E07FB50BAB05930393A7
:104E2000054B02930023CDE9003301221846FDF71C
:104E300093FB07B05DF804FB17B000001FB5FDF74A
:104E400017FB0024064B02932046CDE90044054998
:104E500023460122FFF7E0FF2046FEF78DFA00BF50
:104E600017B00000609E000030B5816885B0103931
:104E700021F00704054602F09BFE10220146684619
:104E800002F03CFF07491022684602F02CFF102375
:104E90006A462146284602F05BFE003818BF012012
:104EA00005B030BDAEA3000030B50D46816887B0B7
:104EB000102302AA1039044602F035FE002802DA57
:104EC000012007B030BD102202A9204603F091F95D
:104ED00000283AD11E49102202A802F0DDFE002867
:104EE0000CBF012302232B70204603F06EF901232F
:104EF00001460DF10702204602F015FE0028DFDB17
:104F00009DF8073003F00F021B096A702B71012214
:104F10000DF10701204603F06CF910B96B78042BF2
:104F200003D901236B7000232B71A268183A22F079
:104F30000702083AA91C204603F06EF90028BFD1E9
:104F4000E91C204603F0C1F9BBE70323CBE700BF10
:104F5000AEA30000F0B53E4F46008BB0054606A953
:104F600057F8260003F0B7F9044610B1FF200BB044
:104F7000F0BD013608A957F8260003F0ACF9012866
:104F800044D1344B34490395CDE901430094234681
:104F90000322204603F00AF9304B08938DF8244091
:104FA0009DF818609DF820702D4C00222078314625
:104FB00003F011F988B36078394603F00CF960B357
:104FC000A378042B03D09DF81B10994225D1E378D8
:104FD000042B03D09DF8231099421ED12379042B72
:104FE00017D16279022A29D11E4B1B49CDE90353FF
:104FF0001D4B029300231846CDE90033032203F032
:10500000D5F86079831E022BB1D9AFE70028C7D04D
:10501000ACE79DF81A109942E3D00132032A04F15B
:105020000604C3D1114B029300231846CDE9003387
:105030000949039503F0BAF8012098E7032A05D03F
:105040000B4B0C49042A08BF0B46CEE70A4BCCE7B2
:10505000C4A1000057B00000889E000003010303B4
:10506000DDB0000039B000009DB00000BCB0000011
:105070003EB0000050B0000034B00000014B1B688F
:10508000184700BF3C000020014B1B68184700BFB9
:1050900038000020024B1860024B00201960704756
:1050A0003C00002038000020044B1A790AB18242EB
:1050B00001D1186870470833F7E700BFCCA10000A2
:1050C00001680E4A9142034615D1C169A2F110222E
:1050D000A2F1EF1291420ED18268012A0BD8C26868
:1050E00012B101698A4206D0586928B19B691B1A1E
:1050F0005842584170470120704700BF55AA00FF31
:1051000070B50D4B9E68A6B13046FFF7D9FF044637
:1051100078B9F3686BB935690DB9204670BD28467A
:10512000FFF7CEFF28B9EB68B34202D12E462D69B6
:10513000F2E70124F1E700BF201700202DE9F84332
:105140003F4F3C68D4B1BC68C4B100284AD00029A4
:1051500048D001FB00F5B5FBF0F0884242D1281D94
:1051600040D8A9070DD025F003060436FC6803E0FB
:105170006368B34238D2A469002CF9D12046BDE857
:10518000F8832E46F2E7FB6041E006F12001631848
:10519000203A5A600022C3E902242A4822691A618F
:1051A00060502949D96102B1D36062695A61A1692D
:1051B0009961AAB193619A6902B153614FF00109F3
:1051C000C4E9016923610023C4E905333B69DB07B6
:1051D0002ED5FFF795FF58B31C4B48461B6826E0B9
:1051E000FB60E8E70024C9E7A3681BB1174B012067
:1051F0001B6898476268921B232A04F12008C4D8D0
:105200000123A360D4E90523002ABCD09361A369DC
:105210000BB162695A610023C4E905333B69DA07BF
:1052200006D5FFF76DFF18B1084B1B6801209847A2
:105230002A4600214046444602F060FD9EE700BF3A
:105240002017002055AA00FF669911EE34000020B7
:1052500070B50546002800F08880444E3368002B66
:1052600000F08380B268002A7FD0834203D872683E
:105270001344984203D33E4B01201B689847A5F185
:1052800020042046FFF71CFF18B1394B01201B6892
:10529000984755F8183C012B03D0354B01201B686B
:1052A0009847002345F8183C55F8143C3BB39A68DE
:1052B0002ABB55F81C2C02F120015A680A445A6096
:1052C00055E905321A6155F8145C2B6903B1DD60AC
:1052D00020220021204602F011FD286910B18368C8
:1052E000002B2ED033699B073FD5FFF709FF00281D
:1052F0003BD01F4BBDE870401B680120184755F894
:10530000100C00282AD0836843BB426863681344AA
:105310002033636003692361D4E905239AB9CBB9CB
:10532000436963618269A261B3B19C61A36903B1FE
:105330005C61236903B1DC602022002102F0DEFC05
:10534000D0E72C46E1E79361A369002BE8D06269BE
:105350005A61E5E7F360F7E7F460E7E7F36845F8DB
:10536000083C03B15C61F460BCE770BD201700200D
:105370003400002038B514220C460546002113489D
:1053800002F0BCFC12491348FFF784FE232C1CD901
:1053900015F003031FBF043CE418C3F10403ED1828
:1053A00022460021284602F0A9FC084B0A499D60CC
:1053B000C3E90054203C6C609A6811609A68DA6016
:1053C000A1F11021A1F1EF11D16138BD201700200A
:1053D000515200003D51000055AA00FFF8B500F100
:1053E00008064768044630460D4603F0F7F8874242
:1053F0004BD16368B3F5807F47D80021304603F076
:10540000E5F9002841DD0021304603F0D3F8E0B390
:1054100045B9294604F1140003F0D8F9002834DD19
:105420000020F8BD04F12C050021284603F0CEF938
:1054300000282ADD0021284603F0BCF828B304F137
:1054400038050021284603F0C1F900281DDD0021A0
:10545000284603F0AFF8C0B1002104F1140003F0B6
:10546000B5F9002811DD002104F1440003F0AEF984
:1054700000280ADD002104F1500003F0A7F90028FC
:1054800003DD002104F15C00C6E70148C9E700BF65
:1054900080BFFFFF012938B50546144601D00748F3
:1054A00038BD22B90123C5E929340020F8E71046A8
:1054B000FFF7FAFD0028F5D1F1E700BF00BFFFFFBD
:1054C00070B500210446FFF789FF054610B10E4D67
:1054D000284670BD04F10806304603F07BF87F28AB
:1054E000F5D914342946204603F064F80028EED09C
:1054F000204603F06FF80128E9D93146204603F031
:1055000024F90028E4DBE2E700BEFFFFF0B50C461B
:1055100087B0002105461646FFF760FF002839D105
:1055200003A802F0A0FF21466A6803A803F05CF814
:10553000044618B103A802F09CFF0CE005F1080432
:10554000214603A803F001F9002807DB03A802F0B5
:1055500090FF6FF00304A4F5854418E005F168039B
:1055600003A96F68009305F114022346084603F06F
:1055700008FC04460028DDD13A46314603A803F072
:1055800049F8044603A802F074FF002CE3D120463A
:1055900007B0F0BD004CFAE780BFFFFF01292DE9FD
:1055A000F041034641D8224A224F2348234E244D3E
:1055B000244C9966002918BF9046234A18BF964686
:1055C00002F1794202F5740202F5016218BF9446B5
:1055D0001E4A18BF17461E4A18BF164602F1D1428E
:1055E00008BF804602F5C0121A4802F51E620CBFC1
:1055F000864615461848194A0CBF84461446184872
:10560000A2F11162A2F50C22A2F28E2218BF02466C
:105610000020C3E90000C3E9028EC3E904C7C3E95F
:105620000665C3E90842BDE8F0816FF07300FAE750
:10563000D89E05C13AF54FA567E6096A7F520E511B
:105640008C68059BABD9831F07D57C3639590EF77B
:10565000310BC0FF85AE67BB72F36E3CA78FF96458
:10566000A44FFABE2DE9F04FD1B0031D019300F114
:1056700024030DF58E7B0393019B5A4653F8040FC8
:1056800042F8040F03989842F8D14F9B02934CAD17
:10569000DDE94AE395E82011DDE948070493424B30
:1056A000059306AA4FF00009B9F10F0F63D84C78A3
:1056B0000B78240444EA0364CB7823438C7843EAD0
:1056C00004234FEAF52A8CEA0804059E93608AEACF
:1056D000B51A2C408AEA756A84EA0C04544456F8D8
:1056E00004AB059654442344029CCDF808C02344DF
:1056F0004FEA703A40EA07048AEAB00A04EA0E0464
:1057000000EA07068AEAB05A3443544409F1010911
:10571000DDF810A0CDF810E0B9F1400F9A4402F185
:105720000402234401F104011ED1CDE90634CDE980
:105730004E8CCDE94CA5CDE94A7ECDE94830019AA1
:1057400052F8043F01925BF8042F1344019A13604E
:10575000039B9342F3D106A84FF4947101F0EAFB46
:10576000002051B0BDE8F08FBE46C4460746A846AB
:105770001846554698E7136852F8384C52F8346C7E
:105780004FEAF34A8AEA734A8AEA932A52F8143CA7
:10579000234452F8344C4FEAB44484EAF614534498
:1057A00084EAD60423448CE7E4A100004FF0805340
:1057B000D3F83021082A06D1D3F83431052B02D88A
:1057C000024AD05C70470020704700BFF5B000006F
:1057D000024AD2F80034002BFBD0704700E00140B1
:1057E00010B54FF08053D3F83021082A4ED14FF036
:1057F00080420021C2F80C11C2F81011C2F838150D
:1058000002F54042D3F80414C2F82015D3F8081466
:10581000C2F82415D3F80C14C2F82815D3F81014C4
:10582000C2F82C15D3F81414C2F83015D3F8181494
:10583000C2F83415D3F81C14C2F84015D3F820145C
:10584000C2F84415D3F82414C2F84815D3F8281424
:10585000C2F84C15D3F82C14C2F85015D3F83014F4
:10586000C2F85415D3F83414C2F86015D3F83814BC
:10587000C2F86415D3F83C14C2F86815D3F8401484
:10588000C2F86C15D3F84434C2F87035FFF78EFFB8
:1058900018B13A4B3A4AC3F88C26FFF787FF18B184
:1058A000384BFB22C3F81825FFF780FF70B14FF08B
:1058B00080414FF08053D1F8E42ED3F8583222F0D3
:1058C0000F0203F00F031343C1F8E43EFFF76EFF2E
:1058D00020B12D4B4FF40072C3F840264FF0805397
:1058E000D3F83031082B1AD14FF08043D3F800247D
:1058F000D20744BF6FF00102C3F800244FF0805379
:10590000D3F83431052B02D8204AD35C3BB14FF099
:105910001023D3F808224FF08043C3F858254FF0E6
:105920001023D3F80022002A03DBD3F80432002B23
:1059300022DA174901234FF01020C1F80435122450
:10594000FFF746FFC0F80042FFF742FFC0F80442ED
:10595000FFF73EFF0023C1F80435FFF739FFBFF31F
:105960004F8F0C490C4BCA6802F4E0621343CB60C2
:10597000BFF34F8F00BFFDE710BD00BF00500040D8
:105980004881030000F0004000900240EFB00000AA
:1059900000E0014000ED00E00400FA0530B50468C5
:1059A000CCB1BFF35B8FB4FA84F3C3F11F03DBB256
:1059B00001229A4024EA020250E8005FA54204D185
:1059C00040E8002CBCF1000FF6D1BFF35B8FE6D1AD
:1059D00002480B7030BD0248FCE700BF0000AD0B71
:1059E0000200AD0B10B50368CB40DB0714D40123D4
:1059F0008B400268BFF35B8F43EA020150E8004F1F
:105A0000944204D140E8001CBCF1000FF6D1BFF372
:105A10005B8FEED1014810BD0148FCE70000AD0BE3
:105A20000400AD0B014BC3F80405704700F00140C2
:105A3000F7B5044618B1012823D003B0F0BD4FF0EC
:105A400080430222C3F80823C3F80401D3F80421D9
:105A50000122DA60064601238DF8073042F2107504
:105A60004FF08047D4B1012CE7D1D7F80C3403F4C0
:105A70008033AEBB83B3012003F091FF013DF4D12D
:105A80002AE04FF080430022C3F80803C3F8002146
:105A9000D3F8002158600DF10706DCE7D7F8183479
:105AA00003F480333EB9002BC7D0012003F077FF09
:105AB000013DF3D1C1E7D7F8182402F003023260A8
:105AC000002BBAD09DF80700012803D103F067FF2F
:105AD000013DC7D1012CB0D1054B00225A71ACE772
